{
  "_format": "hh-sol-artifact-1",
  "contractName": "Transactions",
  "sourceName": "contracts/Transactions.sol",
  "abi": [
    {
      "anonymous": false,
      "inputs": [
        {
          "indexed": false,
          "internalType": "address",
          "name": "from",
          "type": "address"
        },
        {
          "indexed": false,
          "internalType": "address",
          "name": "receiver",
          "type": "address"
        },
        {
          "indexed": false,
          "internalType": "uint256",
          "name": "amount",
          "type": "uint256"
        },
        {
          "indexed": false,
          "internalType": "string",
          "name": "message",
          "type": "string"
        },
        {
          "indexed": false,
          "internalType": "uint256",
          "name": "timeStamp",
          "type": "uint256"
        },
        {
          "indexed": false,
          "internalType": "string",
          "name": "keyword",
          "type": "string"
        },
        {
          "indexed": false,
          "internalType": "bytes32",
          "name": "txnHash",
          "type": "bytes32"
        }
      ],
      "name": "Transfer",
      "type": "event"
    },
    {
      "inputs": [
        {
          "internalType": "address payable",
          "name": "receiver",
          "type": "address"
        },
        {
          "internalType": "uint256",
          "name": "amount",
          "type": "uint256"
        },
        {
          "internalType": "string",
          "name": "message",
          "type": "string"
        },
        {
          "internalType": "string",
          "name": "keyword",
          "type": "string"
        }
      ],
      "name": "createTxn",
      "outputs": [],
      "stateMutability": "nonpayable",
      "type": "function"
    },
    {
      "inputs": [],
      "name": "getAllTxns",
      "outputs": [
        {
          "components": [
            {
              "internalType": "address",
              "name": "sender",
              "type": "address"
            },
            {
              "internalType": "address",
              "name": "receiver",
              "type": "address"
            },
            {
              "internalType": "uint256",
              "name": "amount",
              "type": "uint256"
            },
            {
              "internalType": "string",
              "name": "message",
              "type": "string"
            },
            {
              "internalType": "uint256",
              "name": "timeStamp",
              "type": "uint256"
            },
            {
              "internalType": "string",
              "name": "keyword",
              "type": "string"
            },
            {
              "internalType": "bytes32",
              "name": "txnHash",
              "type": "bytes32"
            }
          ],
          "internalType": "struct Transactions.TransferStruct[]",
          "name": "",
          "type": "tuple[]"
        }
      ],
      "stateMutability": "view",
      "type": "function"
    },
    {
      "inputs": [],
      "name": "getTxnCount",
      "outputs": [
        {
          "internalType": "uint256",
          "name": "",
          "type": "uint256"
        }
      ],
      "stateMutability": "view",
      "type": "function"
    }
  ],
  "bytecode": "0x608060405234801561001057600080fd5b50610f56806100206000396000f3fe608060405234801561001057600080fd5b50600436106100415760003560e01c80638a69d70014610046578063c67c4efe14610064578063eb85bf2a14610080575b600080fd5b61004e61009e565b60405161005b9190610772565b60405180910390f35b61007e60048036038101906100799190610947565b6102eb565b005b610088610501565b60405161009591906109f5565b60405180910390f35b60606001805480602002602001604051908101604052809291908181526020016000905b828210156102e257838290600052602060002090600702016040518060e00160405290816000820160009054906101000a900473ffffffffffffffffffffffffffffffffffffffff1673ffffffffffffffffffffffffffffffffffffffff1673ffffffffffffffffffffffffffffffffffffffff1681526020016001820160009054906101000a900473ffffffffffffffffffffffffffffffffffffffff1673ffffffffffffffffffffffffffffffffffffffff1673ffffffffffffffffffffffffffffffffffffffff168152602001600282015481526020016003820180546101ab90610a3f565b80601f01602080910402602001604051908101604052809291908181526020018280546101d790610a3f565b80156102245780601f106101f957610100808354040283529160200191610224565b820191906000526020600020905b81548152906001019060200180831161020757829003601f168201915b505050505081526020016004820154815260200160058201805461024790610a3f565b80601f016020809104026020016040519081016040528092919081815260200182805461027390610a3f565b80156102c05780601f10610295576101008083540402835291602001916102c0565b820191906000526020600020905b8154815290600101906020018083116102a357829003601f168201915b50505050508152602001600682015481525050815260200190600101906100c2565b50505050905090565b60016000808282546102fd9190610a9f565b9250508190555060016040518060e001604052803373ffffffffffffffffffffffffffffffffffffffff1681526020018673ffffffffffffffffffffffffffffffffffffffff1681526020018581526020018481526020014281526020018381526020013242604051602001610374929190610b3c565b60405160208183030381529060405280519060200120815250908060018154018082558091505060019003906000526020600020906007020160009091909190915060008201518160000160006101000a81548173ffffffffffffffffffffffffffffffffffffffff021916908373ffffffffffffffffffffffffffffffffffffffff16021790555060208201518160010160006101000a81548173ffffffffffffffffffffffffffffffffffffffff021916908373ffffffffffffffffffffffffffffffffffffffff1602179055506040820151816002015560608201518160030190816104639190610d14565b506080820151816004015560a08201518160050190816104839190610d14565b5060c0820151816006015550507f7be5f74c5c0d664a080f27052f691ace6986e6459641abe4c1474f1d971f216633858585428632426040516020016104ca929190610b3c565b604051602081830303815290604052805190602001206040516104f39796959493929190610ea3565b60405180910390a150505050565b60008054905090565b600081519050919050565b600082825260208201905092915050565b6000819050602082019050919050565b600073ffffffffffffffffffffffffffffffffffffffff82169050919050565b600061056182610536565b9050919050565b61057181610556565b82525050565b6000819050919050565b61058a81610577565b82525050565b600081519050919050565b600082825260208201905092915050565b60005b838110156105ca5780820151818401526020810190506105af565b60008484015250505050565b6000601f19601f8301169050919050565b60006105f282610590565b6105fc818561059b565b935061060c8185602086016105ac565b610615816105d6565b840191505092915050565b6000819050919050565b61063381610620565b82525050565b600060e0830160008301516106516000860182610568565b5060208301516106646020860182610568565b5060408301516106776040860182610581565b506060830151848203606086015261068f82826105e7565b91505060808301516106a46080860182610581565b5060a083015184820360a08601526106bc82826105e7565b91505060c08301516106d160c086018261062a565b508091505092915050565b60006106e88383610639565b905092915050565b6000602082019050919050565b60006107088261050a565b6107128185610515565b93508360208202850161072485610526565b8060005b85811015610760578484038952815161074185826106dc565b945061074c836106f0565b925060208a01995050600181019050610728565b50829750879550505050505092915050565b6000602082019050818103600083015261078c81846106fd565b905092915050565b6000604051905090565b600080fd5b600080fd5b60006107b382610536565b9050919050565b6107c3816107a8565b81146107ce57600080fd5b50565b6000813590506107e0816107ba565b92915050565b6107ef81610577565b81146107fa57600080fd5b50565b60008135905061080c816107e6565b92915050565b600080fd5b600080fd5b7f4e487b7100000000000000000000000000000000000000000000000000000000600052604160045260246000fd5b610854826105d6565b810181811067ffffffffffffffff821117156108735761087261081c565b5b80604052505050565b6000610886610794565b9050610892828261084b565b919050565b600067ffffffffffffffff8211156108b2576108b161081c565b5b6108bb826105d6565b9050602081019050919050565b82818337600083830152505050565b60006108ea6108e584610897565b61087c565b90508281526020810184848401111561090657610905610817565b5b6109118482856108c8565b509392505050565b600082601f83011261092e5761092d610812565b5b813561093e8482602086016108d7565b91505092915050565b600080600080608085870312156109615761096061079e565b5b600061096f878288016107d1565b9450506020610980878288016107fd565b935050604085013567ffffffffffffffff8111156109a1576109a06107a3565b5b6109ad87828801610919565b925050606085013567ffffffffffffffff8111156109ce576109cd6107a3565b5b6109da87828801610919565b91505092959194509250565b6109ef81610577565b82525050565b6000602082019050610a0a60008301846109e6565b92915050565b7f4e487b7100000000000000000000000000000000000000000000000000000000600052602260045260246000fd5b60006002820490506001821680610a5757607f821691505b602082108103610a6a57610a69610a10565b5b50919050565b7f4e487b7100000000000000000000000000000000000000000000000000000000600052601160045260246000fd5b6000610aaa82610577565b9150610ab583610577565b9250828201905080821115610acd57610acc610a70565b5b92915050565b60008160601b9050919050565b6000610aeb82610ad3565b9050919050565b6000610afd82610ae0565b9050919050565b610b15610b1082610556565b610af2565b82525050565b6000819050919050565b610b36610b3182610577565b610b1b565b82525050565b6000610b488285610b04565b601482019150610b588284610b25565b6020820191508190509392505050565b60008190508160005260206000209050919050565b60006020601f8301049050919050565b600082821b905092915050565b600060088302610bca7fffffffffffffffffffffffffffffffffffffffffffffffffffffffffffffffff82610b8d565b610bd48683610b8d565b95508019841693508086168417925050509392505050565b6000819050919050565b6000610c11610c0c610c0784610577565b610bec565b610577565b9050919050565b6000819050919050565b610c2b83610bf6565b610c3f610c3782610c18565b848454610b9a565b825550505050565b600090565b610c54610c47565b610c5f818484610c22565b505050565b5b81811015610c8357610c78600082610c4c565b600181019050610c65565b5050565b601f821115610cc857610c9981610b68565b610ca284610b7d565b81016020851015610cb1578190505b610cc5610cbd85610b7d565b830182610c64565b50505b505050565b600082821c905092915050565b6000610ceb60001984600802610ccd565b1980831691505092915050565b6000610d048383610cda565b9150826002028217905092915050565b610d1d82610590565b67ffffffffffffffff811115610d3657610d3561081c565b5b610d408254610a3f565b610d4b828285610c87565b600060209050601f831160018114610d7e5760008415610d6c578287015190505b610d768582610cf8565b865550610dde565b601f198416610d8c86610b68565b60005b82811015610db457848901518255600182019150602085019450602081019050610d8f565b86831015610dd15784890151610dcd601f891682610cda565b8355505b6001600288020188555050505b505050505050565b610def81610556565b82525050565b6000610e10610e0b610e0684610536565b610bec565b610536565b9050919050565b6000610e2282610df5565b9050919050565b6000610e3482610e17565b9050919050565b610e4481610e29565b82525050565b600082825260208201905092915050565b6000610e6682610590565b610e708185610e4a565b9350610e808185602086016105ac565b610e89816105d6565b840191505092915050565b610e9d81610620565b82525050565b600060e082019050610eb8600083018a610de6565b610ec56020830189610e3b565b610ed260408301886109e6565b8181036060830152610ee48187610e5b565b9050610ef360808301866109e6565b81810360a0830152610f058185610e5b565b9050610f1460c0830184610e94565b9897505050505050505056fea26469706673582212209468b5bc116e3154fa595fc777cfd5c679ccddcde8712eb1f2ad12869c63fc6d64736f6c63430008130033",
  "linkReferences": {},
  "deployedLinkReferences": {}
}